{
  "contractName": "Rentforcement",
  "abi": [
    {
      "inputs": [],
      "name": "productId",
      "outputs": [
        {
          "internalType": "uint256",
          "name": "",
          "type": "uint256"
        }
      ],
      "stateMutability": "view",
      "type": "function"
    },
    {
      "inputs": [
        {
          "internalType": "uint256",
          "name": "",
          "type": "uint256"
        }
      ],
      "name": "products",
      "outputs": [
        {
          "internalType": "string",
          "name": "productName",
          "type": "string"
        },
        {
          "internalType": "string",
          "name": "productDesc",
          "type": "string"
        },
        {
          "internalType": "uint256",
          "name": "productPrice",
          "type": "uint256"
        },
        {
          "internalType": "address",
          "name": "productOwner",
          "type": "address"
        },
        {
          "internalType": "uint32",
          "name": "lastDateAvailable",
          "type": "uint32"
        },
        {
          "internalType": "bool",
          "name": "isAvailableNow",
          "type": "bool"
        }
      ],
      "stateMutability": "view",
      "type": "function"
    },
    {
      "inputs": [
        {
          "internalType": "address",
          "name": "",
          "type": "address"
        }
      ],
      "name": "userProductCount",
      "outputs": [
        {
          "internalType": "uint32",
          "name": "",
          "type": "uint32"
        }
      ],
      "stateMutability": "view",
      "type": "function"
    },
    {
      "inputs": [
        {
          "internalType": "address",
          "name": "",
          "type": "address"
        }
      ],
      "name": "users",
      "outputs": [
        {
          "internalType": "string",
          "name": "userName",
          "type": "string"
        },
        {
          "internalType": "string",
          "name": "userEmail",
          "type": "string"
        },
        {
          "internalType": "string",
          "name": "userPhone",
          "type": "string"
        },
        {
          "internalType": "string",
          "name": "userAddress",
          "type": "string"
        },
        {
          "internalType": "string",
          "name": "userCity",
          "type": "string"
        },
        {
          "internalType": "string",
          "name": "userState",
          "type": "string"
        },
        {
          "internalType": "bool",
          "name": "isValid",
          "type": "bool"
        }
      ],
      "stateMutability": "view",
      "type": "function"
    },
    {
      "inputs": [
        {
          "internalType": "string",
          "name": "_userName",
          "type": "string"
        },
        {
          "internalType": "string",
          "name": "_userEmail",
          "type": "string"
        },
        {
          "internalType": "string",
          "name": "_userPhone",
          "type": "string"
        },
        {
          "internalType": "string",
          "name": "_userAddress",
          "type": "string"
        },
        {
          "internalType": "string",
          "name": "_userCity",
          "type": "string"
        },
        {
          "internalType": "string",
          "name": "_userState",
          "type": "string"
        }
      ],
      "name": "createNewUser",
      "outputs": [
        {
          "internalType": "bool",
          "name": "",
          "type": "bool"
        }
      ],
      "stateMutability": "nonpayable",
      "type": "function"
    },
    {
      "inputs": [
        {
          "internalType": "string",
          "name": "_productName",
          "type": "string"
        },
        {
          "internalType": "string",
          "name": "_productDesc",
          "type": "string"
        },
        {
          "internalType": "uint32",
          "name": "_numberOfDays",
          "type": "uint32"
        },
        {
          "internalType": "uint256",
          "name": "_perDayPrice",
          "type": "uint256"
        }
      ],
      "name": "addProductOnRent",
      "outputs": [
        {
          "internalType": "bool",
          "name": "",
          "type": "bool"
        }
      ],
      "stateMutability": "nonpayable",
      "type": "function"
    },
    {
      "inputs": [
        {
          "internalType": "uint256",
          "name": "_id",
          "type": "uint256"
        },
        {
          "internalType": "string",
          "name": "_updatedName",
          "type": "string"
        },
        {
          "internalType": "string",
          "name": "_updatedDesc",
          "type": "string"
        },
        {
          "internalType": "uint32",
          "name": "_updatedNumberOfDays",
          "type": "uint32"
        },
        {
          "internalType": "uint256",
          "name": "_updatedPerDayPrice",
          "type": "uint256"
        }
      ],
      "name": "editProductOnRent",
      "outputs": [],
      "stateMutability": "nonpayable",
      "type": "function"
    },
    {
      "inputs": [],
      "name": "fetchAllProducts",
      "outputs": [
        {
          "components": [
            {
              "internalType": "string",
              "name": "productName",
              "type": "string"
            },
            {
              "internalType": "string",
              "name": "productDesc",
              "type": "string"
            },
            {
              "internalType": "uint256",
              "name": "productPrice",
              "type": "uint256"
            },
            {
              "internalType": "address",
              "name": "productOwner",
              "type": "address"
            },
            {
              "internalType": "uint32",
              "name": "lastDateAvailable",
              "type": "uint32"
            },
            {
              "internalType": "bool",
              "name": "isAvailableNow",
              "type": "bool"
            },
            {
              "internalType": "bool[]",
              "name": "isAvailable",
              "type": "bool[]"
            }
          ],
          "internalType": "struct Rentforcement.Product[]",
          "name": "",
          "type": "tuple[]"
        }
      ],
      "stateMutability": "view",
      "type": "function"
    },
    {
      "inputs": [],
      "name": "fetchMyProducts",
      "outputs": [
        {
          "components": [
            {
              "internalType": "string",
              "name": "productName",
              "type": "string"
            },
            {
              "internalType": "string",
              "name": "productDesc",
              "type": "string"
            },
            {
              "internalType": "uint256",
              "name": "productPrice",
              "type": "uint256"
            },
            {
              "internalType": "address",
              "name": "productOwner",
              "type": "address"
            },
            {
              "internalType": "uint32",
              "name": "lastDateAvailable",
              "type": "uint32"
            },
            {
              "internalType": "bool",
              "name": "isAvailableNow",
              "type": "bool"
            },
            {
              "internalType": "bool[]",
              "name": "isAvailable",
              "type": "bool[]"
            }
          ],
          "internalType": "struct Rentforcement.Product[]",
          "name": "",
          "type": "tuple[]"
        }
      ],
      "stateMutability": "view",
      "type": "function"
    },
    {
      "inputs": [],
      "name": "checkIfUserExists",
      "outputs": [
        {
          "internalType": "bool",
          "name": "",
          "type": "bool"
        }
      ],
      "stateMutability": "view",
      "type": "function"
    },
    {
      "inputs": [],
      "name": "getDummy",
      "outputs": [
        {
          "internalType": "uint256",
          "name": "",
          "type": "uint256"
        }
      ],
      "stateMutability": "view",
      "type": "function"
    },
    {
      "inputs": [
        {
          "internalType": "uint256",
          "name": "x",
          "type": "uint256"
        }
      ],
      "name": "setDummy",
      "outputs": [],
      "stateMutability": "nonpayable",
      "type": "function"
    }
  ],
  "bytecode": "0x60806040526000805534801561001457600080fd5b50612517806100246000396000f3fe608060405234801561001057600080fd5b50600436106100b45760003560e01c8063ae30fe3311610071578063ae30fe33146101d2578063c5ce3911146101ee578063cf40fc9c1461020c578063d553ab9c1461022a578063dff6fbaf14610248578063fa0ff39f14610266576100b4565b806353155958146100b95780636b3b8861146100e95780636ff77c7a146101195780637acc0b20146101495780638495ab861461017e578063a87430ba1461019c575b600080fd5b6100d360048036038101906100ce9190611a0c565b610282565b6040516100e091906122be565b60405180910390f35b61010360048036038101906100fe9190611a35565b6102a5565b6040516101109190612120565b60405180910390f35b610133600480360381019061012e9190611b4e565b610403565b6040516101409190612120565b60405180910390f35b610163600480360381019061015e9190611be1565b61064f565b604051610175969594939291906121d4565b60405180910390f35b6101866107f8565b60405161019391906120fe565b60405180910390f35b6101b660048036038101906101b19190611a0c565b610b43565b6040516101c9979695949392919061213b565b60405180910390f35b6101ec60048036038101906101e79190611c0a565b610f22565b005b6101f6611244565b60405161020391906122a3565b60405180910390f35b61021461124a565b60405161022191906122a3565b60405180910390f35b610232611253565b60405161023f91906120fe565b60405180910390f35b6102506116c4565b60405161025d9190612120565b60405180910390f35b610280600480360381019061027b9190611be1565b61176a565b005b60046020528060005260406000206000915054906101000a900463ffffffff1681565b60006102af611774565b6040518060e0016040528089815260200188815260200187815260200186815260200185815260200184815260200160011515815250905080600260003373ffffffffffffffffffffffffffffffffffffffff1673ffffffffffffffffffffffffffffffffffffffff16815260200190815260200160002060008201518160000190805190602001906103439291906117b3565b5060208201518160010190805190602001906103609291906117b3565b50604082015181600201908051906020019061037d9291906117b3565b50606082015181600301908051906020019061039a9291906117b3565b5060808201518160040190805190602001906103b79291906117b3565b5060a08201518160050190805190602001906103d49291906117b3565b5060c08201518160060160006101000a81548160ff021916908315150217905550905050509695505050505050565b6000808363ffffffff1642019050610419611833565b6040518060e001604052808881526020018781526020018581526020013373ffffffffffffffffffffffffffffffffffffffff1681526020018363ffffffff1681526020016001151581526020018663ffffffff1667ffffffffffffffff8111801561048457600080fd5b506040519080825280602002602001820160405280156104b35781602001602082028036833780820191505090505b5081525090508060036000600154815260200190815260200160002060008201518160000190805190602001906104eb9291906117b3565b5060208201518160010190805190602001906105089291906117b3565b506040820151816002015560608201518160030160006101000a81548173ffffffffffffffffffffffffffffffffffffffff021916908373ffffffffffffffffffffffffffffffffffffffff16021790555060808201518160030160146101000a81548163ffffffff021916908363ffffffff16021790555060a08201518160030160186101000a81548160ff02191690831515021790555060c08201518160040190805190602001906105bd92919061188e565b509050506001600460003373ffffffffffffffffffffffffffffffffffffffff1673ffffffffffffffffffffffffffffffffffffffff16815260200190815260200160002060008282829054906101000a900463ffffffff160192506101000a81548163ffffffff021916908363ffffffff160217905550600180600082825401925050819055505050949350505050565b6003602052806000526040600020600091509050806000018054600181600116156101000203166002900480601f0160208091040260200160405190810160405280929190818152602001828054600181600116156101000203166002900480156106fb5780601f106106d0576101008083540402835291602001916106fb565b820191906000526020600020905b8154815290600101906020018083116106de57829003601f168201915b505050505090806001018054600181600116156101000203166002900480601f0160208091040260200160405190810160405280929190818152602001828054600181600116156101000203166002900480156107995780601f1061076e57610100808354040283529160200191610799565b820191906000526020600020905b81548152906001019060200180831161077c57829003601f168201915b5050505050908060020154908060030160009054906101000a900473ffffffffffffffffffffffffffffffffffffffff16908060030160149054906101000a900463ffffffff16908060030160189054906101000a900460ff16905086565b60608060015467ffffffffffffffff8111801561081457600080fd5b5060405190808252806020026020018201604052801561084e57816020015b61083b611833565b8152602001906001900390816108335790505b5090506000805b600154811015610b3a57600115156003600083815260200190815260200160002060030160189054906101000a900460ff1615151415610b2d57600360008281526020019081526020016000206040518060e0016040529081600082018054600181600116156101000203166002900480601f0160208091040260200160405190810160405280929190818152602001828054600181600116156101000203166002900480156109465780601f1061091b57610100808354040283529160200191610946565b820191906000526020600020905b81548152906001019060200180831161092957829003601f168201915b50505050508152602001600182018054600181600116156101000203166002900480601f0160208091040260200160405190810160405280929190818152602001828054600181600116156101000203166002900480156109e85780601f106109bd576101008083540402835291602001916109e8565b820191906000526020600020905b8154815290600101906020018083116109cb57829003601f168201915b50505050508152602001600282015481526020016003820160009054906101000a900473ffffffffffffffffffffffffffffffffffffffff1673ffffffffffffffffffffffffffffffffffffffff1673ffffffffffffffffffffffffffffffffffffffff1681526020016003820160149054906101000a900463ffffffff1663ffffffff1663ffffffff1681526020016003820160189054906101000a900460ff1615151515815260200160048201805480602002602001604051908101604052809291908181526020018280548015610b0657602002820191906000526020600020906000905b82829054906101000a900460ff16151581526020019060010190602082600001049283019260010382029150808411610ad05790505b505050505081525050838381518110610b1b57fe5b60200260200101819052506001820191505b8080600101915050610855565b50819250505090565b6002602052806000526040600020600091509050806000018054600181600116156101000203166002900480601f016020809104026020016040519081016040528092919081815260200182805460018160011615610100020316600290048015610bef5780601f10610bc457610100808354040283529160200191610bef565b820191906000526020600020905b815481529060010190602001808311610bd257829003601f168201915b505050505090806001018054600181600116156101000203166002900480601f016020809104026020016040519081016040528092919081815260200182805460018160011615610100020316600290048015610c8d5780601f10610c6257610100808354040283529160200191610c8d565b820191906000526020600020905b815481529060010190602001808311610c7057829003601f168201915b505050505090806002018054600181600116156101000203166002900480601f016020809104026020016040519081016040528092919081815260200182805460018160011615610100020316600290048015610d2b5780601f10610d0057610100808354040283529160200191610d2b565b820191906000526020600020905b815481529060010190602001808311610d0e57829003601f168201915b505050505090806003018054600181600116156101000203166002900480601f016020809104026020016040519081016040528092919081815260200182805460018160011615610100020316600290048015610dc95780601f10610d9e57610100808354040283529160200191610dc9565b820191906000526020600020905b815481529060010190602001808311610dac57829003601f168201915b505050505090806004018054600181600116156101000203166002900480601f016020809104026020016040519081016040528092919081815260200182805460018160011615610100020316600290048015610e675780601f10610e3c57610100808354040283529160200191610e67565b820191906000526020600020905b815481529060010190602001808311610e4a57829003601f168201915b505050505090806005018054600181600116156101000203166002900480601f016020809104026020016040519081016040528092919081815260200182805460018160011615610100020316600290048015610f055780601f10610eda57610100808354040283529160200191610f05565b820191906000526020600020905b815481529060010190602001808311610ee857829003601f168201915b5050505050908060060160009054906101000a900460ff16905087565b6003600086815260200190815260200160002060030160189054906101000a900460ff1680610f5057600080fd5b3373ffffffffffffffffffffffffffffffffffffffff166003600088815260200190815260200160002060030160009054906101000a900473ffffffffffffffffffffffffffffffffffffffff1673ffffffffffffffffffffffffffffffffffffffff1614610ff4576040517f08c379a0000000000000000000000000000000000000000000000000000000008152600401610feb90612243565b60405180910390fd5b60008363ffffffff16420190506003600088815260200190815260200160002060030160149054906101000a900463ffffffff1663ffffffff168163ffffffff1610611075576040517f08c379a000000000000000000000000000000000000000000000000000000000815260040161106c90612263565b60405180910390fd5b60608463ffffffff1667ffffffffffffffff8111801561109457600080fd5b506040519080825280602002602001820160405280156110c35781602001602082028036833780820191505090505b50905060005b600360008a8152602001908152602001600020600401805490508163ffffffff16101561116857600360008a81526020019081526020016000206004018163ffffffff168154811061111757fe5b90600052602060002090602091828204019190069054906101000a900460ff16828263ffffffff168151811061114957fe5b60200260200101901515908115158152505080806001019150506110c9565b5086600360008a815260200190815260200160002060000190805190602001906111939291906117b3565b5085600360008a815260200190815260200160002060010190805190602001906111be9291906117b3565b5083600360008a81526020019081526020016000206002018190555081600360008a815260200190815260200160002060030160146101000a81548163ffffffff021916908363ffffffff16021790555080600360008a8152602001908152602001600020600401908051906020019061123992919061188e565b505050505050505050565b60015481565b60008054905090565b60606000600460003373ffffffffffffffffffffffffffffffffffffffff1673ffffffffffffffffffffffffffffffffffffffff16815260200190815260200160002060009054906101000a900463ffffffff1663ffffffff16116112ed576040517f08c379a00000000000000000000000000000000000000000000000000000000081526004016112e490612283565b60405180910390fd5b6060600460003373ffffffffffffffffffffffffffffffffffffffff1673ffffffffffffffffffffffffffffffffffffffff16815260200190815260200160002060009054906101000a900463ffffffff1663ffffffff1667ffffffffffffffff8111801561135b57600080fd5b5060405190808252806020026020018201604052801561139557816020015b611382611833565b81526020019060019003908161137a5790505b5090506000805b6001548110156116bb573373ffffffffffffffffffffffffffffffffffffffff166003600083815260200190815260200160002060030160009054906101000a900473ffffffffffffffffffffffffffffffffffffffff1673ffffffffffffffffffffffffffffffffffffffff1614156116ae57600360008281526020019081526020016000206040518060e0016040529081600082018054600181600116156101000203166002900480601f0160208091040260200160405190810160405280929190818152602001828054600181600116156101000203166002900480156114c75780601f1061149c576101008083540402835291602001916114c7565b820191906000526020600020905b8154815290600101906020018083116114aa57829003601f168201915b50505050508152602001600182018054600181600116156101000203166002900480601f0160208091040260200160405190810160405280929190818152602001828054600181600116156101000203166002900480156115695780601f1061153e57610100808354040283529160200191611569565b820191906000526020600020905b81548152906001019060200180831161154c57829003601f168201915b50505050508152602001600282015481526020016003820160009054906101000a900473ffffffffffffffffffffffffffffffffffffffff1673ffffffffffffffffffffffffffffffffffffffff1673ffffffffffffffffffffffffffffffffffffffff1681526020016003820160149054906101000a900463ffffffff1663ffffffff1663ffffffff1681526020016003820160189054906101000a900460ff161515151581526020016004820180548060200260200160405190810160405280929190818152602001828054801561168757602002820191906000526020600020906000905b82829054906101000a900460ff161515815260200190600101906020826000010492830192600103820291508084116116515790505b50505050508152505083838151811061169c57fe5b60200260200101819052506001820191505b808060010191505061139c565b50819250505090565b60006040516020016116d5906120e9565b60405160208183030381529060405280519060200120600260003373ffffffffffffffffffffffffffffffffffffffff1673ffffffffffffffffffffffffffffffffffffffff16815260200190815260200160002060000160405160200161173d91906120d2565b6040516020818303038152906040528051906020012014156117625760009050611767565b600190505b90565b8060008190555050565b6040518060e001604052806060815260200160608152602001606081526020016060815260200160608152602001606081526020016000151581525090565b828054600181600116156101000203166002900490600052602060002090601f016020900481019282601f106117f457805160ff1916838001178555611822565b82800160010185558215611822579182015b82811115611821578251825591602001919060010190611806565b5b50905061182f9190611934565b5090565b6040518060e00160405280606081526020016060815260200160008152602001600073ffffffffffffffffffffffffffffffffffffffff168152602001600063ffffffff168152602001600015158152602001606081525090565b82805482825590600052602060002090601f016020900481019282156119235791602002820160005b838211156118f457835183826101000a81548160ff02191690831515021790555092602001926001016020816000010492830192600103026118b7565b80156119215782816101000a81549060ff02191690556001016020816000010492830192600103026118f4565b505b5090506119309190611951565b5090565b5b8082111561194d576000816000905550600101611935565b5090565b5b8082111561197557600081816101000a81549060ff021916905550600101611952565b5090565b6000813590506119888161249c565b92915050565b600082601f83011261199f57600080fd5b81356119b26119ad82612306565b6122d9565b915080825260208301602083018583830111156119ce57600080fd5b6119d9838284612449565b50505092915050565b6000813590506119f1816124b3565b92915050565b600081359050611a06816124ca565b92915050565b600060208284031215611a1e57600080fd5b6000611a2c84828501611979565b91505092915050565b60008060008060008060c08789031215611a4e57600080fd5b600087013567ffffffffffffffff811115611a6857600080fd5b611a7489828a0161198e565b965050602087013567ffffffffffffffff811115611a9157600080fd5b611a9d89828a0161198e565b955050604087013567ffffffffffffffff811115611aba57600080fd5b611ac689828a0161198e565b945050606087013567ffffffffffffffff811115611ae357600080fd5b611aef89828a0161198e565b935050608087013567ffffffffffffffff811115611b0c57600080fd5b611b1889828a0161198e565b92505060a087013567ffffffffffffffff811115611b3557600080fd5b611b4189828a0161198e565b9150509295509295509295565b60008060008060808587031215611b6457600080fd5b600085013567ffffffffffffffff811115611b7e57600080fd5b611b8a8782880161198e565b945050602085013567ffffffffffffffff811115611ba757600080fd5b611bb38782880161198e565b9350506040611bc4878288016119f7565b9250506060611bd5878288016119e2565b91505092959194509250565b600060208284031215611bf357600080fd5b6000611c01848285016119e2565b91505092915050565b600080600080600060a08688031215611c2257600080fd5b6000611c30888289016119e2565b955050602086013567ffffffffffffffff811115611c4d57600080fd5b611c598882890161198e565b945050604086013567ffffffffffffffff811115611c7657600080fd5b611c828882890161198e565b9350506060611c93888289016119f7565b9250506080611ca4888289016119e2565b9150509295509295909350565b6000611cbd8383611dce565b60208301905092915050565b6000611cd58383611fec565b905092915050565b611ce6816123f1565b82525050565b611cf5816123f1565b82525050565b6000611d0682612367565b611d1081856123a2565b9350611d1b83612332565b8060005b83811015611d4c578151611d338882611cb1565b9750611d3e83612388565b925050600181019050611d1f565b5085935050505092915050565b6000611d6482612372565b611d6e81856123b3565b935083602082028501611d8085612342565b8060005b85811015611dbc5784840389528151611d9d8582611cc9565b9450611da883612395565b925060208a01995050600181019050611d84565b50829750879550505050505092915050565b611dd781612403565b82525050565b611de681612403565b82525050565b6000611df78261237d565b611e0181856123c4565b9350611e11818560208601612458565b611e1a8161248b565b840191505092915050565b6000611e308261237d565b611e3a81856123d5565b9350611e4a818560208601612458565b611e538161248b565b840191505092915050565b600081546001811660008114611e7b5760018114611ea057611ee4565b607f6002830416611e8c81876123e6565b955060ff1983168652808601935050611ee4565b60028204611eae81876123e6565b9550611eb985612352565b60005b82811015611edb57815481890152600182019150602081019050611ebc565b82880195505050505b505092915050565b6000611ef9601a836123d5565b91507f796f7520646f6e277420686176652065646974206163636573730000000000006000830152602082019050919050565b6000611f396034836123d5565b91507f736f7272792c20796f752063616e27742064656372656173652074686520617660008301527f61696c61626c652064617973206f6e2072656e740000000000000000000000006020830152604082019050919050565b6000611f9f6000836123e6565b9150600082019050919050565b6000611fb9601a836123d5565b91507f796f7520646f6e2774206861766520616e792070726f647563740000000000006000830152602082019050919050565b600060e08301600083015184820360008601526120098282611dec565b915050602083015184820360208601526120238282611dec565b91505060408301516120386040860182612096565b50606083015161204b6060860182611cdd565b50608083015161205e60808601826120b4565b5060a083015161207160a0860182611dce565b5060c083015184820360c08601526120898282611cfb565b9150508091505092915050565b61209f8161242f565b82525050565b6120ae8161242f565b82525050565b6120bd81612439565b82525050565b6120cc81612439565b82525050565b60006120de8284611e5e565b915081905092915050565b60006120f482611f92565b9150819050919050565b600060208201905081810360008301526121188184611d59565b905092915050565b60006020820190506121356000830184611ddd565b92915050565b600060e0820190508181036000830152612155818a611e25565b905081810360208301526121698189611e25565b9050818103604083015261217d8188611e25565b905081810360608301526121918187611e25565b905081810360808301526121a58186611e25565b905081810360a08301526121b98185611e25565b90506121c860c0830184611ddd565b98975050505050505050565b600060c08201905081810360008301526121ee8189611e25565b905081810360208301526122028188611e25565b905061221160408301876120a5565b61221e6060830186611cec565b61222b60808301856120c3565b61223860a0830184611ddd565b979650505050505050565b6000602082019050818103600083015261225c81611eec565b9050919050565b6000602082019050818103600083015261227c81611f2c565b9050919050565b6000602082019050818103600083015261229c81611fac565b9050919050565b60006020820190506122b860008301846120a5565b92915050565b60006020820190506122d360008301846120c3565b92915050565b6000604051905081810181811067ffffffffffffffff821117156122fc57600080fd5b8060405250919050565b600067ffffffffffffffff82111561231d57600080fd5b601f19601f8301169050602081019050919050565b6000819050602082019050919050565b6000819050602082019050919050565b60008190508160005260206000209050919050565b600081519050919050565b600081519050919050565b600081519050919050565b6000602082019050919050565b6000602082019050919050565b600082825260208201905092915050565b600082825260208201905092915050565b600082825260208201905092915050565b600082825260208201905092915050565b600081905092915050565b60006123fc8261240f565b9050919050565b60008115159050919050565b600073ffffffffffffffffffffffffffffffffffffffff82169050919050565b6000819050919050565b600063ffffffff82169050919050565b82818337600083830152505050565b60005b8381101561247657808201518184015260208101905061245b565b83811115612485576000848401525b50505050565b6000601f19601f8301169050919050565b6124a5816123f1565b81146124b057600080fd5b50565b6124bc8161242f565b81146124c757600080fd5b50565b6124d381612439565b81146124de57600080fd5b5056fea2646970667358221220ed76a345ea63f4a41965ddfe44359dfc6d1af7285453f74cb6d9c6fff025ee5664736f6c63430007000033",
  "immutableReferences": {},
  "source": "// SPDX-License-Identifier: MIT\n\n/**\n * DRentforcement\n * A Decentralized C2C Renting Platform\n * Contract for basic renting functions\n */\n\npragma solidity ^0.7.0;\npragma experimental ABIEncoderV2;\n\ncontract Rentforcement {\n\n    // dummy variable\n    uint dummy = 0;\n\n    // user structure\n    struct User {\n\n        string userName;\n        string userEmail;\n        string userPhone;\n        string userAddress;\n        string userCity;\n        string userState;\n        bool isValid;\n        \n    }\n\n    // Product structure\n    struct Product {\n        string productName;         // name of product\n        string productDesc;         // product description\n        uint256 productPrice;       // price of product per day in wei (1 ether = 10^18 wei)\n        address productOwner;       // Owner of the product\n        uint32 lastDateAvailable;   // storing the last date until which the product is available\n        bool isAvailableNow;        // Is product available now i.e. is product active\n        bool[] isAvailable;         // Array containing per day availability of product\n    }\n\n    uint256 public productId;\n    // uint256 public userId;\n\n    // mapping of userid with user object\n    mapping(address => User) public users;\n\n    // mapping of productid with product object\n    mapping(uint256 => Product) public products;\n\n    // mapping of user address with product count\n    mapping(address => uint32) public userProductCount;\n\n    // Add emit events here\n\n    /**\n     * Function to add new users\n     * INPUT PARAMS\n     * string userName;\n     * string userEmail;\n     * string userPhone;\n     * string userAddress;\n     * string userCity;\n     * string userState;\n     */\n     function createNewUser(\n         string memory _userName,\n         string memory _userEmail,\n         string memory _userPhone,\n         string memory _userAddress,\n         string memory _userCity,\n         string memory _userState\n     ) public returns(bool) {\n\n         // creating an object\n         User memory _user = User(\n            _userName, _userEmail, _userPhone, _userAddress, _userCity, _userState, true\n         );\n\n         // saving to mapping\n        users[msg.sender] = _user;\n\n        // emit event here\n\n     }\n\n\n    /**\n     * Function for adding product on rent\n     * INPUT PARAMS\n     * _productName: Name of product\n     * _productDesc: Description of product\n     * _numberOfDays: Number of days, product is available on rent\n     * _perDayPrice: Per day price of product\n     */\n    function addProductOnRent(string memory _productName, string memory _productDesc, uint32 _numberOfDays, uint256 _perDayPrice) public returns(bool) {\n\n        // calculating the enddate\n        uint32 endDate = uint32(block.timestamp + _numberOfDays);\n\n        // creating a object of product in memory\n        Product memory product = Product(_productName, _productDesc, _perDayPrice, msg.sender, endDate, true, new bool[](_numberOfDays));\n\n        // add object to permanant storage\n        products[productId] = product;\n\n        // increment count to product count mapping\n        userProductCount[msg.sender] += 1;\n\n        // emit event here\n\n        // Incrementing the product ID\n        productId += 1;\n\n    }\n\n    // Modifier to check whether product on rent is active or not\n    modifier isProductActive(bool _isAvailableNow) {\n        require(_isAvailableNow);\n        _;\n    }\n\n    // Another Modifier to check whether product has expired or not\n\n    /**\n     * Function to edit product on rent\n     * Can only be done by Owner\n     * Uses modifier isProductActive\n     * INPUT PARAMS\n     * _id: The ID of product\n     * _updatedName: Updated name of product\n     * _updatedDesc: Updated description of product\n     * _updatedNumberOfDays: Updated number of days, product is available on rent\n     * _updatedPerDayPrice: Updated Per day price of product\n     */\n    function editProductOnRent(uint256 _id, string memory _updatedName, string memory _updatedDesc, uint32 _updatedNumberOfDays, uint256 _updatedPerDayPrice) external isProductActive(products[_id].isAvailableNow) {\n\n        // Assert that property is only edited by owner and not by any external contract\n        require(\n            products[_id].productOwner == msg.sender,\n            \"you don't have edit access\"\n        );\n\n        // Calculate the new enddate\n        uint32 endDate = uint32(block.timestamp + _updatedNumberOfDays);\n\n        // Assert that number of days are not reduced\n        require(\n            endDate < products[_id].lastDateAvailable,\n            \"sorry, you can't decrease the available days on rent\"\n        );\n\n        // Make new memory array for storing \n        bool[] memory newIsAvailable = new bool[](_updatedNumberOfDays);\n        for (uint32 i=0; i<products[_id].isAvailable.length; i++) {\n            newIsAvailable[i] = products[_id].isAvailable[i];\n        }\n\n        // update product instance\n        products[_id].productName = _updatedName;\n        products[_id].productDesc = _updatedDesc;\n        products[_id].productPrice = _updatedPerDayPrice;\n        products[_id].lastDateAvailable = endDate;\n        products[_id].isAvailable = newIsAvailable;\n\n    }\n\n    // Function to borrow product here\n\n    /**\n     * Function to fetch all products here\n     * Used in dashboard\n     * Checks whether product is active or not\n     */\n    function fetchAllProducts() external view returns(Product[] memory) {\n\n        // Declaring a new array in memory (nothing is stored in storage)\n        // No gas used for external view function\n        Product[] memory allProducts = new Product[](productId);\n        uint256 counter = 0;\n\n        // iterating over the product mapping\n        for (uint256 i=0; i<productId; i++) {\n            \n            // Only add those products which are available\n            if (products[i].isAvailableNow == true) {\n                \n                // adding the specific product to array\n                allProducts[counter] = products[i];\n                counter += 1;\n            }\n        }\n\n        return allProducts;\n\n    }\n\n    /**\n     * Function to fetch owned products\n     * Used in dashboard\n     * Returns products which are owned by user calling the function\n     */\n    function fetchMyProducts() external view returns(Product[] memory) {\n\n        require(\n            userProductCount[msg.sender] > 0,\n            \"you don't have any product\"\n        );\n\n        // Declaring a new array in memory (nothing is stored in storage)\n        // No gas used for external view function\n        Product[] memory myProducts = new Product[](userProductCount[msg.sender]);\n        uint256 counter = 0;\n\n        // iterating over the product mapping\n        for (uint256 i=0; i<productId; i++) {\n            \n            // checking owner\n            if (products[i].productOwner == msg.sender) {\n                \n                // adding the specific product to array\n                myProducts[counter] = products[i];\n                counter += 1;\n            }\n        }\n\n        return myProducts;\n\n    }\n\n    // function to check whether user exists or not\n    function checkIfUserExists() external view returns(bool) {\n        if (keccak256(abi.encodePacked(users[msg.sender].userName)) == keccak256(abi.encodePacked(\"\"))) {\n            return false;\n        } else {\n            return true;\n        }\n    }\n\n    /**\n     * Dummy function for testing\n     */\n     function getDummy() external view returns(uint) {\n         return dummy;\n     }\n\n     function setDummy(uint x) external {\n         dummy = x;\n     }\n}",
  "sourcePath": "/home/manav/Manav/Others/Blockchain/projects/DRentforcement/contracts/Rentforcement.sol",
  "compiler": {
    "name": "solc",
    "version": "0.7.0+commit.9e61f92b.Emscripten.clang"
  },
  "schemaVersion": "3.2.3",
  "updatedAt": "2020-08-24T14:54:04.167Z",
  "devdoc": {
    "kind": "dev",
    "methods": {},
    "version": 1
  },
  "userdoc": {
    "kind": "user",
    "methods": {
      "addProductOnRent(string,string,uint32,uint256)": {
        "notice": "Function for adding product on rent INPUT PARAMS _productName: Name of product _productDesc: Description of product _numberOfDays: Number of days, product is available on rent _perDayPrice: Per day price of product"
      },
      "createNewUser(string,string,string,string,string,string)": {
        "notice": "Function to add new users INPUT PARAMS string userName; string userEmail; string userPhone; string userAddress; string userCity; string userState;"
      },
      "editProductOnRent(uint256,string,string,uint32,uint256)": {
        "notice": "Function to edit product on rent Can only be done by Owner Uses modifier isProductActive INPUT PARAMS _id: The ID of product _updatedName: Updated name of product _updatedDesc: Updated description of product _updatedNumberOfDays: Updated number of days, product is available on rent _updatedPerDayPrice: Updated Per day price of product"
      },
      "fetchAllProducts()": {
        "notice": "Function to fetch all products here Used in dashboard Checks whether product is active or not"
      },
      "fetchMyProducts()": {
        "notice": "Function to fetch owned products Used in dashboard Returns products which are owned by user calling the function"
      },
      "getDummy()": {
        "notice": "Dummy function for testing"
      }
    },
    "version": 1
  }
}