{
  "contractName": "Rentforcement",
  "abi": [
    {
      "inputs": [],
      "name": "productId",
      "outputs": [
        {
          "internalType": "uint256",
          "name": "",
          "type": "uint256"
        }
      ],
      "stateMutability": "view",
      "type": "function",
      "constant": true
    },
    {
      "inputs": [
        {
          "internalType": "uint256",
          "name": "",
          "type": "uint256"
        }
      ],
      "name": "products",
      "outputs": [
        {
          "internalType": "string",
          "name": "productName",
          "type": "string"
        },
        {
          "internalType": "string",
          "name": "productDesc",
          "type": "string"
        },
        {
          "internalType": "uint256",
          "name": "productPrice",
          "type": "uint256"
        },
        {
          "internalType": "address",
          "name": "productOwner",
          "type": "address"
        },
        {
          "internalType": "uint32",
          "name": "lastDateAvailable",
          "type": "uint32"
        },
        {
          "internalType": "bool",
          "name": "isAvailableNow",
          "type": "bool"
        }
      ],
      "stateMutability": "view",
      "type": "function",
      "constant": true
    },
    {
      "inputs": [
        {
          "internalType": "string",
          "name": "_productName",
          "type": "string"
        },
        {
          "internalType": "string",
          "name": "_productDesc",
          "type": "string"
        },
        {
          "internalType": "uint32",
          "name": "_numberOfDays",
          "type": "uint32"
        },
        {
          "internalType": "uint256",
          "name": "_perDayPrice",
          "type": "uint256"
        }
      ],
      "name": "addProductOnRent",
      "outputs": [
        {
          "internalType": "bool",
          "name": "",
          "type": "bool"
        }
      ],
      "stateMutability": "nonpayable",
      "type": "function"
    },
    {
      "inputs": [
        {
          "internalType": "uint256",
          "name": "_id",
          "type": "uint256"
        },
        {
          "internalType": "string",
          "name": "_updatedName",
          "type": "string"
        },
        {
          "internalType": "string",
          "name": "_updatedDesc",
          "type": "string"
        },
        {
          "internalType": "uint32",
          "name": "_updatedNumberOfDays",
          "type": "uint32"
        },
        {
          "internalType": "uint256",
          "name": "_updatedPerDayPrice",
          "type": "uint256"
        }
      ],
      "name": "editProductOnRent",
      "outputs": [],
      "stateMutability": "nonpayable",
      "type": "function"
    },
    {
      "inputs": [],
      "name": "fetchAllProducts",
      "outputs": [
        {
          "components": [
            {
              "internalType": "string",
              "name": "productName",
              "type": "string"
            },
            {
              "internalType": "string",
              "name": "productDesc",
              "type": "string"
            },
            {
              "internalType": "uint256",
              "name": "productPrice",
              "type": "uint256"
            },
            {
              "internalType": "address",
              "name": "productOwner",
              "type": "address"
            },
            {
              "internalType": "uint32",
              "name": "lastDateAvailable",
              "type": "uint32"
            },
            {
              "internalType": "bool",
              "name": "isAvailableNow",
              "type": "bool"
            },
            {
              "internalType": "bool[]",
              "name": "isAvailable",
              "type": "bool[]"
            }
          ],
          "internalType": "struct Rentforcement.Product[]",
          "name": "",
          "type": "tuple[]"
        }
      ],
      "stateMutability": "view",
      "type": "function",
      "constant": true
    }
  ],
  "bytecode": "0x608060405234801561001057600080fd5b506114fa806100206000396000f3fe608060405234801561001057600080fd5b50600436106100575760003560e01c80636ff77c7a1461005c5780637acc0b201461008c5780638495ab86146100c1578063ae30fe33146100df578063c5ce3911146100fb575b600080fd5b61007660048036038101906100719190610d50565b610119565b604051610083919061120e565b60405180910390f35b6100a660048036038101906100a19190610de3565b6102f0565b6040516100b896959493929190611229565b60405180910390f35b6100c9610499565b6040516100d691906111ec565b60405180910390f35b6100f960048036038101906100f49190610e0c565b6107e4565b005b610103610b06565b60405161011091906112d8565b60405180910390f35b6000808363ffffffff164201905061012f610b0c565b6040518060e001604052808881526020018781526020018581526020013373ffffffffffffffffffffffffffffffffffffffff1681526020018363ffffffff1681526020016001151581526020018663ffffffff1667ffffffffffffffff8111801561019a57600080fd5b506040519080825280602002602001820160405280156101c95781602001602082028036833780820191505090505b5081525090508060016000805481526020019081526020016000206000820151816000019080519060200190610200929190610b67565b50602082015181600101908051906020019061021d929190610b67565b506040820151816002015560608201518160030160006101000a81548173ffffffffffffffffffffffffffffffffffffffff021916908373ffffffffffffffffffffffffffffffffffffffff16021790555060808201518160030160146101000a81548163ffffffff021916908363ffffffff16021790555060a08201518160030160186101000a81548160ff02191690831515021790555060c08201518160040190805190602001906102d2929190610be7565b50905050600160008082825401925050819055505050949350505050565b6001602052806000526040600020600091509050806000018054600181600116156101000203166002900480601f01602080910402602001604051908101604052809291908181526020018280546001816001161561010002031660029004801561039c5780601f106103715761010080835404028352916020019161039c565b820191906000526020600020905b81548152906001019060200180831161037f57829003601f168201915b505050505090806001018054600181600116156101000203166002900480601f01602080910402602001604051908101604052809291908181526020018280546001816001161561010002031660029004801561043a5780601f1061040f5761010080835404028352916020019161043a565b820191906000526020600020905b81548152906001019060200180831161041d57829003601f168201915b5050505050908060020154908060030160009054906101000a900473ffffffffffffffffffffffffffffffffffffffff16908060030160149054906101000a900463ffffffff16908060030160189054906101000a900460ff16905086565b60608060005467ffffffffffffffff811180156104b557600080fd5b506040519080825280602002602001820160405280156104ef57816020015b6104dc610b0c565b8152602001906001900390816104d45790505b5090506000805b6000548110156107db57600115156001600083815260200190815260200160002060030160189054906101000a900460ff16151514156107ce57600160008281526020019081526020016000206040518060e0016040529081600082018054600181600116156101000203166002900480601f0160208091040260200160405190810160405280929190818152602001828054600181600116156101000203166002900480156105e75780601f106105bc576101008083540402835291602001916105e7565b820191906000526020600020905b8154815290600101906020018083116105ca57829003601f168201915b50505050508152602001600182018054600181600116156101000203166002900480601f0160208091040260200160405190810160405280929190818152602001828054600181600116156101000203166002900480156106895780601f1061065e57610100808354040283529160200191610689565b820191906000526020600020905b81548152906001019060200180831161066c57829003601f168201915b50505050508152602001600282015481526020016003820160009054906101000a900473ffffffffffffffffffffffffffffffffffffffff1673ffffffffffffffffffffffffffffffffffffffff1673ffffffffffffffffffffffffffffffffffffffff1681526020016003820160149054906101000a900463ffffffff1663ffffffff1663ffffffff1681526020016003820160189054906101000a900460ff16151515158152602001600482018054806020026020016040519081016040528092919081815260200182805480156107a757602002820191906000526020600020906000905b82829054906101000a900460ff161515815260200190600101906020826000010492830192600103820291508084116107715790505b5050505050815250508383815181106107bc57fe5b60200260200101819052506001820191505b80806001019150506104f6565b50819250505090565b6001600086815260200190815260200160002060030160189054906101000a900460ff168061081257600080fd5b3373ffffffffffffffffffffffffffffffffffffffff166001600088815260200190815260200160002060030160009054906101000a900473ffffffffffffffffffffffffffffffffffffffff1673ffffffffffffffffffffffffffffffffffffffff16146108b6576040517f08c379a00000000000000000000000000000000000000000000000000000000081526004016108ad90611298565b60405180910390fd5b60008363ffffffff16420190506001600088815260200190815260200160002060030160149054906101000a900463ffffffff1663ffffffff168163ffffffff1610610937576040517f08c379a000000000000000000000000000000000000000000000000000000000815260040161092e906112b8565b60405180910390fd5b60608463ffffffff1667ffffffffffffffff8111801561095657600080fd5b506040519080825280602002602001820160405280156109855781602001602082028036833780820191505090505b50905060005b600160008a8152602001908152602001600020600401805490508163ffffffff161015610a2a57600160008a81526020019081526020016000206004018163ffffffff16815481106109d957fe5b90600052602060002090602091828204019190069054906101000a900460ff16828263ffffffff1681518110610a0b57fe5b602002602001019015159081151581525050808060010191505061098b565b5086600160008a81526020019081526020016000206000019080519060200190610a55929190610b67565b5085600160008a81526020019081526020016000206001019080519060200190610a80929190610b67565b5083600160008a81526020019081526020016000206002018190555081600160008a815260200190815260200160002060030160146101000a81548163ffffffff021916908363ffffffff16021790555080600160008a81526020019081526020016000206004019080519060200190610afb929190610be7565b505050505050505050565b60005481565b6040518060e00160405280606081526020016060815260200160008152602001600073ffffffffffffffffffffffffffffffffffffffff168152602001600063ffffffff168152602001600015158152602001606081525090565b828054600181600116156101000203166002900490600052602060002090601f016020900481019282601f10610ba857805160ff1916838001178555610bd6565b82800160010185558215610bd6579182015b82811115610bd5578251825591602001919060010190610bba565b5b509050610be39190610c8d565b5090565b82805482825590600052602060002090601f01602090048101928215610c7c5791602002820160005b83821115610c4d57835183826101000a81548160ff0219169083151502179055509260200192600101602081600001049283019260010302610c10565b8015610c7a5782816101000a81549060ff0219169055600101602081600001049283019260010302610c4d565b505b509050610c899190610caa565b5090565b5b80821115610ca6576000816000905550600101610c8e565b5090565b5b80821115610cce57600081816101000a81549060ff021916905550600101610cab565b5090565b600082601f830112610ce357600080fd5b8135610cf6610cf182611320565b6112f3565b91508082526020830160208301858383011115610d1257600080fd5b610d1d838284611443565b50505092915050565b600081359050610d3581611496565b92915050565b600081359050610d4a816114ad565b92915050565b60008060008060808587031215610d6657600080fd5b600085013567ffffffffffffffff811115610d8057600080fd5b610d8c87828801610cd2565b945050602085013567ffffffffffffffff811115610da957600080fd5b610db587828801610cd2565b9350506040610dc687828801610d3b565b9250506060610dd787828801610d26565b91505092959194509250565b600060208284031215610df557600080fd5b6000610e0384828501610d26565b91505092915050565b600080600080600060a08688031215610e2457600080fd5b6000610e3288828901610d26565b955050602086013567ffffffffffffffff811115610e4f57600080fd5b610e5b88828901610cd2565b945050604086013567ffffffffffffffff811115610e7857600080fd5b610e8488828901610cd2565b9350506060610e9588828901610d3b565b9250506080610ea688828901610d26565b9150509295509295909350565b6000610ebf8383610fd0565b60208301905092915050565b6000610ed78383611106565b905092915050565b610ee8816113eb565b82525050565b610ef7816113eb565b82525050565b6000610f088261136c565b610f1281856113a7565b9350610f1d8361134c565b8060005b83811015610f4e578151610f358882610eb3565b9750610f408361138d565b925050600181019050610f21565b5085935050505092915050565b6000610f6682611377565b610f7081856113b8565b935083602082028501610f828561135c565b8060005b85811015610fbe5784840389528151610f9f8582610ecb565b9450610faa8361139a565b925060208a01995050600181019050610f86565b50829750879550505050505092915050565b610fd9816113fd565b82525050565b610fe8816113fd565b82525050565b6000610ff982611382565b61100381856113c9565b9350611013818560208601611452565b61101c81611485565b840191505092915050565b600061103282611382565b61103c81856113da565b935061104c818560208601611452565b61105581611485565b840191505092915050565b600061106d601a836113da565b91507f796f7520646f6e277420686176652065646974206163636573730000000000006000830152602082019050919050565b60006110ad6034836113da565b91507f736f7272792c20796f752063616e27742064656372656173652074686520617660008301527f61696c61626c652064617973206f6e2072656e740000000000000000000000006020830152604082019050919050565b600060e08301600083015184820360008601526111238282610fee565b9150506020830151848203602086015261113d8282610fee565b915050604083015161115260408601826111b0565b5060608301516111656060860182610edf565b50608083015161117860808601826111ce565b5060a083015161118b60a0860182610fd0565b5060c083015184820360c08601526111a38282610efd565b9150508091505092915050565b6111b981611429565b82525050565b6111c881611429565b82525050565b6111d781611433565b82525050565b6111e681611433565b82525050565b600060208201905081810360008301526112068184610f5b565b905092915050565b60006020820190506112236000830184610fdf565b92915050565b600060c08201905081810360008301526112438189611027565b905081810360208301526112578188611027565b905061126660408301876111bf565b6112736060830186610eee565b61128060808301856111dd565b61128d60a0830184610fdf565b979650505050505050565b600060208201905081810360008301526112b181611060565b9050919050565b600060208201905081810360008301526112d1816110a0565b9050919050565b60006020820190506112ed60008301846111bf565b92915050565b6000604051905081810181811067ffffffffffffffff8211171561131657600080fd5b8060405250919050565b600067ffffffffffffffff82111561133757600080fd5b601f19601f8301169050602081019050919050565b6000819050602082019050919050565b6000819050602082019050919050565b600081519050919050565b600081519050919050565b600081519050919050565b6000602082019050919050565b6000602082019050919050565b600082825260208201905092915050565b600082825260208201905092915050565b600082825260208201905092915050565b600082825260208201905092915050565b60006113f682611409565b9050919050565b60008115159050919050565b600073ffffffffffffffffffffffffffffffffffffffff82169050919050565b6000819050919050565b600063ffffffff82169050919050565b82818337600083830152505050565b60005b83811015611470578082015181840152602081019050611455565b8381111561147f576000848401525b50505050565b6000601f19601f8301169050919050565b61149f81611429565b81146114aa57600080fd5b50565b6114b681611433565b81146114c157600080fd5b5056fea264697066735822122029ec7fbb8734ab2c4ad8a644a6189974a7b2834985a9956b6ae788815c266d9764736f6c63430007000033",
  "immutableReferences": {},
  "source": "// SPDX-License-Identifier: MIT\n\n/**\n * DRentforcement\n * A Decentralized C2C Renting Platform\n * Contract for basic renting functions\n */\n\npragma solidity ^0.7.0;\npragma experimental ABIEncoderV2;\n\ncontract Rentforcement {\n\n    // Product structure\n    struct Product {\n        string productName;         // name of product\n        string productDesc;         // product description\n        uint256 productPrice;       // price of product per day in wei (1 ether = 10^18 wei)\n        address productOwner;       // Owner of the product\n        uint32 lastDateAvailable;  // storing the last date until which the product is available\n        bool isAvailableNow;        // Is product available now i.e. is product active\n        bool[] isAvailable;         // Array containing per day availability of product\n    }\n\n    uint256 public productId;\n\n    // mapping of productid with product object\n    mapping(uint256 => Product) public products;\n\n    // Add emit events here\n\n    /**\n     * Function for adding product on rent\n     * INPUT PARAMS\n     * _productName: Name of product\n     * _productDesc: Description of product\n     * _numberOfDays: Number of days, product is available on rent\n     * _perDayPrice: Per day price of product\n     */\n    function addProductOnRent(string memory _productName, string memory _productDesc, uint32 _numberOfDays, uint256 _perDayPrice) public returns(bool) {\n\n        // calculating the enddate\n        uint32 endDate = uint32(block.timestamp + _numberOfDays);\n\n        // creating a object of product in memory\n        Product memory product = Product(_productName, _productDesc, _perDayPrice, msg.sender, endDate, true, new bool[](_numberOfDays));\n\n        // add object to permanant storage\n        products[productId] = product;\n\n        // emit event here\n\n        // Incrementing the product ID\n        productId += 1;\n\n    }\n\n    // Modifier to check whether product on rent is active or not\n    modifier isProductActive(bool _isAvailableNow) {\n        require(_isAvailableNow);\n        _;\n    }\n\n    // Another Modifier to check whether product has expired or not\n\n    /**\n     * Function to edit product on rent\n     * Can only be done by Owner\n     * Uses modifier isProductActive\n     * INPUT PARAMS\n     * _id: The ID of product\n     * _updatedName: Updated name of product\n     * _updatedDesc: Updated description of product\n     * _updatedNumberOfDays: Updated number of days, product is available on rent\n     * _updatedPerDayPrice: Updated Per day price of product\n     */\n    function editProductOnRent(uint256 _id, string memory _updatedName, string memory _updatedDesc, uint32 _updatedNumberOfDays, uint256 _updatedPerDayPrice) external isProductActive(products[_id].isAvailableNow) {\n\n        // Assert that property is only edited by owner and not by any external contract\n        require(\n            products[_id].productOwner == msg.sender,\n            \"you don't have edit access\"\n        );\n\n        // Calculate the new enddate\n        uint32 endDate = uint32(block.timestamp + _updatedNumberOfDays);\n\n        // Assert that number of days are not reduced\n        require(\n            endDate < products[_id].lastDateAvailable,\n            \"sorry, you can't decrease the available days on rent\"\n        );\n\n        // Make new memory array for storing \n        bool[] memory newIsAvailable = new bool[](_updatedNumberOfDays);\n        for (uint32 i=0; i<products[_id].isAvailable.length; i++) {\n            newIsAvailable[i] = products[_id].isAvailable[i];\n        }\n\n        // update product instance\n        products[_id].productName = _updatedName;\n        products[_id].productDesc = _updatedDesc;\n        products[_id].productPrice = _updatedPerDayPrice;\n        products[_id].lastDateAvailable = endDate;\n        products[_id].isAvailable = newIsAvailable;\n\n    }\n\n    // Function to borrow product here\n\n    /**\n     * Function to fetch all products here\n     * Used in dashboard\n     * Checks whether product is active or not\n     */\n    function fetchAllProducts() external view returns(Product[] memory) {\n\n        // Declaring a new array in memory (nothing is stored in storage)\n        // No gas used for external view function        \n        Product[] memory allProducts = new Product[](productId);\n        uint256 counter = 0;\n\n        // iterating over the product mapping\n        for (uint256 i=0; i<productId; i++) {\n            \n            // Only add those products which are available\n            if (products[i].isAvailableNow == true) {\n                \n                // adding the specific product to array\n                allProducts[counter] = products[i];\n                counter += 1;\n            }\n        }\n\n        return allProducts;\n\n    }\n\n    /**\n     * Function to fetch owned products\n     * Used in dashboard\n     * Returns products which are owned by user calling the function\n     */\n     // add function here\n}",
  "sourcePath": "/home/manav/Manav/Others/Blockchain/projects/DRentforcement/contracts/Rentforcement.sol",
  "compiler": {
    "name": "solc",
    "version": "0.7.0+commit.9e61f92b.Emscripten.clang"
  },
  "schemaVersion": "3.2.3",
  "updatedAt": "2020-08-14T11:31:57.256Z",
  "networkType": "ethereum",
  "devdoc": {
    "kind": "dev",
    "methods": {},
    "version": 1
  },
  "userdoc": {
    "kind": "user",
    "methods": {
      "addProductOnRent(string,string,uint32,uint256)": {
        "notice": "Function for adding product on rent INPUT PARAMS _productName: Name of product _productDesc: Description of product _numberOfDays: Number of days, product is available on rent _perDayPrice: Per day price of product"
      },
      "editProductOnRent(uint256,string,string,uint32,uint256)": {
        "notice": "Function to edit product on rent Can only be done by Owner Uses modifier isProductActive INPUT PARAMS _id: The ID of product _updatedName: Updated name of product _updatedDesc: Updated description of product _updatedNumberOfDays: Updated number of days, product is available on rent _updatedPerDayPrice: Updated Per day price of product"
      },
      "fetchAllProducts()": {
        "notice": "Function to fetch all products here Used in dashboard Checks whether product is active or not"
      }
    },
    "version": 1
  }
}