{
  "contractName": "Rentforcement",
  "abi": [
    {
      "inputs": [],
      "name": "productId",
      "outputs": [
        {
          "internalType": "uint256",
          "name": "",
          "type": "uint256"
        }
      ],
      "stateMutability": "view",
      "type": "function"
    },
    {
      "inputs": [
        {
          "internalType": "uint256",
          "name": "",
          "type": "uint256"
        }
      ],
      "name": "products",
      "outputs": [
        {
          "internalType": "string",
          "name": "productName",
          "type": "string"
        },
        {
          "internalType": "string",
          "name": "productDesc",
          "type": "string"
        },
        {
          "internalType": "uint256",
          "name": "productPrice",
          "type": "uint256"
        },
        {
          "internalType": "address",
          "name": "productOwner",
          "type": "address"
        },
        {
          "internalType": "uint32",
          "name": "lastDateAvailable",
          "type": "uint32"
        },
        {
          "internalType": "bool",
          "name": "isAvailableNow",
          "type": "bool"
        }
      ],
      "stateMutability": "view",
      "type": "function"
    },
    {
      "inputs": [
        {
          "internalType": "address",
          "name": "",
          "type": "address"
        }
      ],
      "name": "userProductCount",
      "outputs": [
        {
          "internalType": "uint32",
          "name": "",
          "type": "uint32"
        }
      ],
      "stateMutability": "view",
      "type": "function"
    },
    {
      "inputs": [
        {
          "internalType": "string",
          "name": "_productName",
          "type": "string"
        },
        {
          "internalType": "string",
          "name": "_productDesc",
          "type": "string"
        },
        {
          "internalType": "uint32",
          "name": "_numberOfDays",
          "type": "uint32"
        },
        {
          "internalType": "uint256",
          "name": "_perDayPrice",
          "type": "uint256"
        }
      ],
      "name": "addProductOnRent",
      "outputs": [
        {
          "internalType": "bool",
          "name": "",
          "type": "bool"
        }
      ],
      "stateMutability": "nonpayable",
      "type": "function"
    },
    {
      "inputs": [
        {
          "internalType": "uint256",
          "name": "_id",
          "type": "uint256"
        },
        {
          "internalType": "string",
          "name": "_updatedName",
          "type": "string"
        },
        {
          "internalType": "string",
          "name": "_updatedDesc",
          "type": "string"
        },
        {
          "internalType": "uint32",
          "name": "_updatedNumberOfDays",
          "type": "uint32"
        },
        {
          "internalType": "uint256",
          "name": "_updatedPerDayPrice",
          "type": "uint256"
        }
      ],
      "name": "editProductOnRent",
      "outputs": [],
      "stateMutability": "nonpayable",
      "type": "function"
    },
    {
      "inputs": [],
      "name": "fetchAllProducts",
      "outputs": [
        {
          "components": [
            {
              "internalType": "string",
              "name": "productName",
              "type": "string"
            },
            {
              "internalType": "string",
              "name": "productDesc",
              "type": "string"
            },
            {
              "internalType": "uint256",
              "name": "productPrice",
              "type": "uint256"
            },
            {
              "internalType": "address",
              "name": "productOwner",
              "type": "address"
            },
            {
              "internalType": "uint32",
              "name": "lastDateAvailable",
              "type": "uint32"
            },
            {
              "internalType": "bool",
              "name": "isAvailableNow",
              "type": "bool"
            },
            {
              "internalType": "bool[]",
              "name": "isAvailable",
              "type": "bool[]"
            }
          ],
          "internalType": "struct Rentforcement.Product[]",
          "name": "",
          "type": "tuple[]"
        }
      ],
      "stateMutability": "view",
      "type": "function"
    },
    {
      "inputs": [],
      "name": "fetchMyProducts",
      "outputs": [
        {
          "components": [
            {
              "internalType": "string",
              "name": "productName",
              "type": "string"
            },
            {
              "internalType": "string",
              "name": "productDesc",
              "type": "string"
            },
            {
              "internalType": "uint256",
              "name": "productPrice",
              "type": "uint256"
            },
            {
              "internalType": "address",
              "name": "productOwner",
              "type": "address"
            },
            {
              "internalType": "uint32",
              "name": "lastDateAvailable",
              "type": "uint32"
            },
            {
              "internalType": "bool",
              "name": "isAvailableNow",
              "type": "bool"
            },
            {
              "internalType": "bool[]",
              "name": "isAvailable",
              "type": "bool[]"
            }
          ],
          "internalType": "struct Rentforcement.Product[]",
          "name": "",
          "type": "tuple[]"
        }
      ],
      "stateMutability": "view",
      "type": "function"
    },
    {
      "inputs": [],
      "name": "getDummy",
      "outputs": [
        {
          "internalType": "uint256",
          "name": "",
          "type": "uint256"
        }
      ],
      "stateMutability": "view",
      "type": "function"
    },
    {
      "inputs": [
        {
          "internalType": "uint256",
          "name": "x",
          "type": "uint256"
        }
      ],
      "name": "setDummy",
      "outputs": [],
      "stateMutability": "nonpayable",
      "type": "function"
    }
  ],
  "bytecode": "0x60806040526000805534801561001457600080fd5b50611baa806100246000396000f3fe608060405234801561001057600080fd5b50600436106100935760003560e01c8063ae30fe3311610066578063ae30fe331461014b578063c5ce391114610167578063cf40fc9c14610185578063d553ab9c146101a3578063fa0ff39f146101c157610093565b806353155958146100985780636ff77c7a146100c85780637acc0b20146100f85780638495ab861461012d575b600080fd5b6100b260048036038101906100ad9190611345565b6101dd565b6040516100bf9190611971565b60405180910390f35b6100e260048036038101906100dd919061136e565b610200565b6040516100ef919061186c565b60405180910390f35b610112600480360381019061010d9190611401565b61044c565b60405161012496959493929190611887565b60405180910390f35b6101356105f5565b604051610142919061184a565b60405180910390f35b6101656004803603810190610160919061142a565b610940565b005b61016f610c62565b60405161017c9190611956565b60405180910390f35b61018d610c68565b60405161019a9190611956565b60405180910390f35b6101ab610c71565b6040516101b8919061184a565b60405180910390f35b6101db60048036038101906101d69190611401565b6110e2565b005b60036020528060005260406000206000915054906101000a900463ffffffff1681565b6000808363ffffffff16420190506102166110ec565b6040518060e001604052808881526020018781526020018581526020013373ffffffffffffffffffffffffffffffffffffffff1681526020018363ffffffff1681526020016001151581526020018663ffffffff1667ffffffffffffffff8111801561028157600080fd5b506040519080825280602002602001820160405280156102b05781602001602082028036833780820191505090505b5081525090508060026000600154815260200190815260200160002060008201518160000190805190602001906102e8929190611147565b506020820151816001019080519060200190610305929190611147565b506040820151816002015560608201518160030160006101000a81548173ffffffffffffffffffffffffffffffffffffffff021916908373ffffffffffffffffffffffffffffffffffffffff16021790555060808201518160030160146101000a81548163ffffffff021916908363ffffffff16021790555060a08201518160030160186101000a81548160ff02191690831515021790555060c08201518160040190805190602001906103ba9291906111c7565b509050506001600360003373ffffffffffffffffffffffffffffffffffffffff1673ffffffffffffffffffffffffffffffffffffffff16815260200190815260200160002060008282829054906101000a900463ffffffff160192506101000a81548163ffffffff021916908363ffffffff160217905550600180600082825401925050819055505050949350505050565b6002602052806000526040600020600091509050806000018054600181600116156101000203166002900480601f0160208091040260200160405190810160405280929190818152602001828054600181600116156101000203166002900480156104f85780601f106104cd576101008083540402835291602001916104f8565b820191906000526020600020905b8154815290600101906020018083116104db57829003601f168201915b505050505090806001018054600181600116156101000203166002900480601f0160208091040260200160405190810160405280929190818152602001828054600181600116156101000203166002900480156105965780601f1061056b57610100808354040283529160200191610596565b820191906000526020600020905b81548152906001019060200180831161057957829003601f168201915b5050505050908060020154908060030160009054906101000a900473ffffffffffffffffffffffffffffffffffffffff16908060030160149054906101000a900463ffffffff16908060030160189054906101000a900460ff16905086565b60608060015467ffffffffffffffff8111801561061157600080fd5b5060405190808252806020026020018201604052801561064b57816020015b6106386110ec565b8152602001906001900390816106305790505b5090506000805b60015481101561093757600115156002600083815260200190815260200160002060030160189054906101000a900460ff161515141561092a57600260008281526020019081526020016000206040518060e0016040529081600082018054600181600116156101000203166002900480601f0160208091040260200160405190810160405280929190818152602001828054600181600116156101000203166002900480156107435780601f1061071857610100808354040283529160200191610743565b820191906000526020600020905b81548152906001019060200180831161072657829003601f168201915b50505050508152602001600182018054600181600116156101000203166002900480601f0160208091040260200160405190810160405280929190818152602001828054600181600116156101000203166002900480156107e55780601f106107ba576101008083540402835291602001916107e5565b820191906000526020600020905b8154815290600101906020018083116107c857829003601f168201915b50505050508152602001600282015481526020016003820160009054906101000a900473ffffffffffffffffffffffffffffffffffffffff1673ffffffffffffffffffffffffffffffffffffffff1673ffffffffffffffffffffffffffffffffffffffff1681526020016003820160149054906101000a900463ffffffff1663ffffffff1663ffffffff1681526020016003820160189054906101000a900460ff161515151581526020016004820180548060200260200160405190810160405280929190818152602001828054801561090357602002820191906000526020600020906000905b82829054906101000a900460ff161515815260200190600101906020826000010492830192600103820291508084116108cd5790505b50505050508152505083838151811061091857fe5b60200260200101819052506001820191505b8080600101915050610652565b50819250505090565b6002600086815260200190815260200160002060030160189054906101000a900460ff168061096e57600080fd5b3373ffffffffffffffffffffffffffffffffffffffff166002600088815260200190815260200160002060030160009054906101000a900473ffffffffffffffffffffffffffffffffffffffff1673ffffffffffffffffffffffffffffffffffffffff1614610a12576040517f08c379a0000000000000000000000000000000000000000000000000000000008152600401610a09906118f6565b60405180910390fd5b60008363ffffffff16420190506002600088815260200190815260200160002060030160149054906101000a900463ffffffff1663ffffffff168163ffffffff1610610a93576040517f08c379a0000000000000000000000000000000000000000000000000000000008152600401610a8a90611916565b60405180910390fd5b60608463ffffffff1667ffffffffffffffff81118015610ab257600080fd5b50604051908082528060200260200182016040528015610ae15781602001602082028036833780820191505090505b50905060005b600260008a8152602001908152602001600020600401805490508163ffffffff161015610b8657600260008a81526020019081526020016000206004018163ffffffff1681548110610b3557fe5b90600052602060002090602091828204019190069054906101000a900460ff16828263ffffffff1681518110610b6757fe5b6020026020010190151590811515815250508080600101915050610ae7565b5086600260008a81526020019081526020016000206000019080519060200190610bb1929190611147565b5085600260008a81526020019081526020016000206001019080519060200190610bdc929190611147565b5083600260008a81526020019081526020016000206002018190555081600260008a815260200190815260200160002060030160146101000a81548163ffffffff021916908363ffffffff16021790555080600260008a81526020019081526020016000206004019080519060200190610c579291906111c7565b505050505050505050565b60015481565b60008054905090565b60606000600360003373ffffffffffffffffffffffffffffffffffffffff1673ffffffffffffffffffffffffffffffffffffffff16815260200190815260200160002060009054906101000a900463ffffffff1663ffffffff1611610d0b576040517f08c379a0000000000000000000000000000000000000000000000000000000008152600401610d0290611936565b60405180910390fd5b6060600360003373ffffffffffffffffffffffffffffffffffffffff1673ffffffffffffffffffffffffffffffffffffffff16815260200190815260200160002060009054906101000a900463ffffffff1663ffffffff1667ffffffffffffffff81118015610d7957600080fd5b50604051908082528060200260200182016040528015610db357816020015b610da06110ec565b815260200190600190039081610d985790505b5090506000805b6001548110156110d9573373ffffffffffffffffffffffffffffffffffffffff166002600083815260200190815260200160002060030160009054906101000a900473ffffffffffffffffffffffffffffffffffffffff1673ffffffffffffffffffffffffffffffffffffffff1614156110cc57600260008281526020019081526020016000206040518060e0016040529081600082018054600181600116156101000203166002900480601f016020809104026020016040519081016040528092919081815260200182805460018160011615610100020316600290048015610ee55780601f10610eba57610100808354040283529160200191610ee5565b820191906000526020600020905b815481529060010190602001808311610ec857829003601f168201915b50505050508152602001600182018054600181600116156101000203166002900480601f016020809104026020016040519081016040528092919081815260200182805460018160011615610100020316600290048015610f875780601f10610f5c57610100808354040283529160200191610f87565b820191906000526020600020905b815481529060010190602001808311610f6a57829003601f168201915b50505050508152602001600282015481526020016003820160009054906101000a900473ffffffffffffffffffffffffffffffffffffffff1673ffffffffffffffffffffffffffffffffffffffff1673ffffffffffffffffffffffffffffffffffffffff1681526020016003820160149054906101000a900463ffffffff1663ffffffff1663ffffffff1681526020016003820160189054906101000a900460ff16151515158152602001600482018054806020026020016040519081016040528092919081815260200182805480156110a557602002820191906000526020600020906000905b82829054906101000a900460ff1615158152602001906001019060208260000104928301926001038202915080841161106f5790505b5050505050815250508383815181106110ba57fe5b60200260200101819052506001820191505b8080600101915050610dba565b50819250505090565b8060008190555050565b6040518060e00160405280606081526020016060815260200160008152602001600073ffffffffffffffffffffffffffffffffffffffff168152602001600063ffffffff168152602001600015158152602001606081525090565b828054600181600116156101000203166002900490600052602060002090601f016020900481019282601f1061118857805160ff19168380011785556111b6565b828001600101855582156111b6579182015b828111156111b557825182559160200191906001019061119a565b5b5090506111c3919061126d565b5090565b82805482825590600052602060002090601f0160209004810192821561125c5791602002820160005b8382111561122d57835183826101000a81548160ff02191690831515021790555092602001926001016020816000010492830192600103026111f0565b801561125a5782816101000a81549060ff021916905560010160208160000104928301926001030261122d565b505b509050611269919061128a565b5090565b5b8082111561128657600081600090555060010161126e565b5090565b5b808211156112ae57600081816101000a81549060ff02191690555060010161128b565b5090565b6000813590506112c181611b2f565b92915050565b600082601f8301126112d857600080fd5b81356112eb6112e6826119b9565b61198c565b9150808252602083016020830185838301111561130757600080fd5b611312838284611adc565b50505092915050565b60008135905061132a81611b46565b92915050565b60008135905061133f81611b5d565b92915050565b60006020828403121561135757600080fd5b6000611365848285016112b2565b91505092915050565b6000806000806080858703121561138457600080fd5b600085013567ffffffffffffffff81111561139e57600080fd5b6113aa878288016112c7565b945050602085013567ffffffffffffffff8111156113c757600080fd5b6113d3878288016112c7565b93505060406113e487828801611330565b92505060606113f58782880161131b565b91505092959194509250565b60006020828403121561141357600080fd5b60006114218482850161131b565b91505092915050565b600080600080600060a0868803121561144257600080fd5b60006114508882890161131b565b955050602086013567ffffffffffffffff81111561146d57600080fd5b611479888289016112c7565b945050604086013567ffffffffffffffff81111561149657600080fd5b6114a2888289016112c7565b93505060606114b388828901611330565b92505060806114c48882890161131b565b9150509295509295909350565b60006114dd83836115ee565b60208301905092915050565b60006114f58383611764565b905092915050565b61150681611a84565b82525050565b61151581611a84565b82525050565b600061152682611a05565b6115308185611a40565b935061153b836119e5565b8060005b8381101561156c57815161155388826114d1565b975061155e83611a26565b92505060018101905061153f565b5085935050505092915050565b600061158482611a10565b61158e8185611a51565b9350836020820285016115a0856119f5565b8060005b858110156115dc57848403895281516115bd85826114e9565b94506115c883611a33565b925060208a019950506001810190506115a4565b50829750879550505050505092915050565b6115f781611a96565b82525050565b61160681611a96565b82525050565b600061161782611a1b565b6116218185611a62565b9350611631818560208601611aeb565b61163a81611b1e565b840191505092915050565b600061165082611a1b565b61165a8185611a73565b935061166a818560208601611aeb565b61167381611b1e565b840191505092915050565b600061168b601a83611a73565b91507f796f7520646f6e277420686176652065646974206163636573730000000000006000830152602082019050919050565b60006116cb603483611a73565b91507f736f7272792c20796f752063616e27742064656372656173652074686520617660008301527f61696c61626c652064617973206f6e2072656e740000000000000000000000006020830152604082019050919050565b6000611731601a83611a73565b91507f796f7520646f6e2774206861766520616e792070726f647563740000000000006000830152602082019050919050565b600060e0830160008301518482036000860152611781828261160c565b9150506020830151848203602086015261179b828261160c565b91505060408301516117b0604086018261180e565b5060608301516117c360608601826114fd565b5060808301516117d6608086018261182c565b5060a08301516117e960a08601826115ee565b5060c083015184820360c0860152611801828261151b565b9150508091505092915050565b61181781611ac2565b82525050565b61182681611ac2565b82525050565b61183581611acc565b82525050565b61184481611acc565b82525050565b600060208201905081810360008301526118648184611579565b905092915050565b600060208201905061188160008301846115fd565b92915050565b600060c08201905081810360008301526118a18189611645565b905081810360208301526118b58188611645565b90506118c4604083018761181d565b6118d1606083018661150c565b6118de608083018561183b565b6118eb60a08301846115fd565b979650505050505050565b6000602082019050818103600083015261190f8161167e565b9050919050565b6000602082019050818103600083015261192f816116be565b9050919050565b6000602082019050818103600083015261194f81611724565b9050919050565b600060208201905061196b600083018461181d565b92915050565b6000602082019050611986600083018461183b565b92915050565b6000604051905081810181811067ffffffffffffffff821117156119af57600080fd5b8060405250919050565b600067ffffffffffffffff8211156119d057600080fd5b601f19601f8301169050602081019050919050565b6000819050602082019050919050565b6000819050602082019050919050565b600081519050919050565b600081519050919050565b600081519050919050565b6000602082019050919050565b6000602082019050919050565b600082825260208201905092915050565b600082825260208201905092915050565b600082825260208201905092915050565b600082825260208201905092915050565b6000611a8f82611aa2565b9050919050565b60008115159050919050565b600073ffffffffffffffffffffffffffffffffffffffff82169050919050565b6000819050919050565b600063ffffffff82169050919050565b82818337600083830152505050565b60005b83811015611b09578082015181840152602081019050611aee565b83811115611b18576000848401525b50505050565b6000601f19601f8301169050919050565b611b3881611a84565b8114611b4357600080fd5b50565b611b4f81611ac2565b8114611b5a57600080fd5b50565b611b6681611acc565b8114611b7157600080fd5b5056fea2646970667358221220ee05e8dceeb7a58a9efd346ac67fc60a3ec6f6b8d840149a769d6d51e8175ade64736f6c63430007000033",
  "immutableReferences": {},
  "source": "// SPDX-License-Identifier: MIT\n\n/**\n * DRentforcement\n * A Decentralized C2C Renting Platform\n * Contract for basic renting functions\n */\n\npragma solidity ^0.7.0;\npragma experimental ABIEncoderV2;\n\ncontract Rentforcement {\n\n    // dummy variable\n    uint dummy = 0;\n\n    // Product structure\n    struct Product {\n        string productName;         // name of product\n        string productDesc;         // product description\n        uint256 productPrice;       // price of product per day in wei (1 ether = 10^18 wei)\n        address productOwner;       // Owner of the product\n        uint32 lastDateAvailable;   // storing the last date until which the product is available\n        bool isAvailableNow;        // Is product available now i.e. is product active\n        bool[] isAvailable;         // Array containing per day availability of product\n    }\n\n    uint256 public productId;\n\n    // mapping of productid with product object\n    mapping(uint256 => Product) public products;\n\n    // mapping of user address with product count\n    mapping(address => uint32) public userProductCount;\n\n    // Add emit events here\n\n    /**\n     * Function for adding product on rent\n     * INPUT PARAMS\n     * _productName: Name of product\n     * _productDesc: Description of product\n     * _numberOfDays: Number of days, product is available on rent\n     * _perDayPrice: Per day price of product\n     */\n    function addProductOnRent(string memory _productName, string memory _productDesc, uint32 _numberOfDays, uint256 _perDayPrice) public returns(bool) {\n\n        // calculating the enddate\n        uint32 endDate = uint32(block.timestamp + _numberOfDays);\n\n        // creating a object of product in memory\n        Product memory product = Product(_productName, _productDesc, _perDayPrice, msg.sender, endDate, true, new bool[](_numberOfDays));\n\n        // add object to permanant storage\n        products[productId] = product;\n\n        // increment count to product count mapping\n        userProductCount[msg.sender] += 1;\n\n        // emit event here\n\n        // Incrementing the product ID\n        productId += 1;\n\n    }\n\n    // Modifier to check whether product on rent is active or not\n    modifier isProductActive(bool _isAvailableNow) {\n        require(_isAvailableNow);\n        _;\n    }\n\n    // Another Modifier to check whether product has expired or not\n\n    /**\n     * Function to edit product on rent\n     * Can only be done by Owner\n     * Uses modifier isProductActive\n     * INPUT PARAMS\n     * _id: The ID of product\n     * _updatedName: Updated name of product\n     * _updatedDesc: Updated description of product\n     * _updatedNumberOfDays: Updated number of days, product is available on rent\n     * _updatedPerDayPrice: Updated Per day price of product\n     */\n    function editProductOnRent(uint256 _id, string memory _updatedName, string memory _updatedDesc, uint32 _updatedNumberOfDays, uint256 _updatedPerDayPrice) external isProductActive(products[_id].isAvailableNow) {\n\n        // Assert that property is only edited by owner and not by any external contract\n        require(\n            products[_id].productOwner == msg.sender,\n            \"you don't have edit access\"\n        );\n\n        // Calculate the new enddate\n        uint32 endDate = uint32(block.timestamp + _updatedNumberOfDays);\n\n        // Assert that number of days are not reduced\n        require(\n            endDate < products[_id].lastDateAvailable,\n            \"sorry, you can't decrease the available days on rent\"\n        );\n\n        // Make new memory array for storing \n        bool[] memory newIsAvailable = new bool[](_updatedNumberOfDays);\n        for (uint32 i=0; i<products[_id].isAvailable.length; i++) {\n            newIsAvailable[i] = products[_id].isAvailable[i];\n        }\n\n        // update product instance\n        products[_id].productName = _updatedName;\n        products[_id].productDesc = _updatedDesc;\n        products[_id].productPrice = _updatedPerDayPrice;\n        products[_id].lastDateAvailable = endDate;\n        products[_id].isAvailable = newIsAvailable;\n\n    }\n\n    // Function to borrow product here\n\n    /**\n     * Function to fetch all products here\n     * Used in dashboard\n     * Checks whether product is active or not\n     */\n    function fetchAllProducts() external view returns(Product[] memory) {\n\n        // Declaring a new array in memory (nothing is stored in storage)\n        // No gas used for external view function\n        Product[] memory allProducts = new Product[](productId);\n        uint256 counter = 0;\n\n        // iterating over the product mapping\n        for (uint256 i=0; i<productId; i++) {\n            \n            // Only add those products which are available\n            if (products[i].isAvailableNow == true) {\n                \n                // adding the specific product to array\n                allProducts[counter] = products[i];\n                counter += 1;\n            }\n        }\n\n        return allProducts;\n\n    }\n\n    /**\n     * Function to fetch owned products\n     * Used in dashboard\n     * Returns products which are owned by user calling the function\n     */\n    function fetchMyProducts() external view returns(Product[] memory) {\n\n        require(\n            userProductCount[msg.sender] > 0,\n            \"you don't have any product\"\n        );\n\n        // Declaring a new array in memory (nothing is stored in storage)\n        // No gas used for external view function\n        Product[] memory myProducts = new Product[](userProductCount[msg.sender]);\n        uint256 counter = 0;\n\n        // iterating over the product mapping\n        for (uint256 i=0; i<productId; i++) {\n            \n            // checking owner\n            if (products[i].productOwner == msg.sender) {\n                \n                // adding the specific product to array\n                myProducts[counter] = products[i];\n                counter += 1;\n            }\n        }\n\n        return myProducts;\n\n    }\n\n    /**\n     * Dummy function for testing\n     */\n     function getDummy() external view returns(uint) {\n         return dummy;\n     }\n\n     function setDummy(uint x) external {\n         dummy = x;\n     }\n}",
  "sourcePath": "/home/manav/Manav/Others/Blockchain/projects/DRentforcement/contracts/Rentforcement.sol",
  "compiler": {
    "name": "solc",
    "version": "0.7.0+commit.9e61f92b.Emscripten.clang"
  },
  "schemaVersion": "3.2.3",
  "updatedAt": "2020-08-20T18:43:08.654Z",
  "devdoc": {
    "kind": "dev",
    "methods": {},
    "version": 1
  },
  "userdoc": {
    "kind": "user",
    "methods": {
      "addProductOnRent(string,string,uint32,uint256)": {
        "notice": "Function for adding product on rent INPUT PARAMS _productName: Name of product _productDesc: Description of product _numberOfDays: Number of days, product is available on rent _perDayPrice: Per day price of product"
      },
      "editProductOnRent(uint256,string,string,uint32,uint256)": {
        "notice": "Function to edit product on rent Can only be done by Owner Uses modifier isProductActive INPUT PARAMS _id: The ID of product _updatedName: Updated name of product _updatedDesc: Updated description of product _updatedNumberOfDays: Updated number of days, product is available on rent _updatedPerDayPrice: Updated Per day price of product"
      },
      "fetchAllProducts()": {
        "notice": "Function to fetch all products here Used in dashboard Checks whether product is active or not"
      },
      "fetchMyProducts()": {
        "notice": "Function to fetch owned products Used in dashboard Returns products which are owned by user calling the function"
      },
      "getDummy()": {
        "notice": "Dummy function for testing"
      }
    },
    "version": 1
  }
}